{
  "abi": [
    {
      "inputs": [
        {
          "internalType": "uint256",
          "name": "_amount",
          "type": "uint256"
        },
        {
          "internalType": "uint256",
          "name": "_account_number",
          "type": "uint256"
        },
        {
          "internalType": "string",
          "name": "_password",
          "type": "string"
        }
      ],
      "name": "borrow",
      "outputs": [],
      "stateMutability": "nonpayable",
      "type": "function"
    },
    {
      "inputs": [
        {
          "internalType": "uint256",
          "name": "_account_number",
          "type": "uint256"
        }
      ],
      "name": "checkIfLoanAccountExists",
      "outputs": [
        {
          "internalType": "bool",
          "name": "",
          "type": "bool"
        }
      ],
      "stateMutability": "view",
      "type": "function"
    },
    {
      "inputs": [
        {
          "internalType": "uint256",
          "name": "_id",
          "type": "uint256"
        }
      ],
      "name": "createLoanAccount",
      "outputs": [],
      "stateMutability": "nonpayable",
      "type": "function"
    },
    {
      "inputs": [
        {
          "internalType": "uint256",
          "name": "_account_number",
          "type": "uint256"
        }
      ],
      "name": "getLoanBalance",
      "outputs": [
        {
          "internalType": "uint256",
          "name": "",
          "type": "uint256"
        }
      ],
      "stateMutability": "view",
      "type": "function"
    },
    {
      "inputs": [
        {
          "internalType": "uint256",
          "name": "_account_number",
          "type": "uint256"
        }
      ],
      "name": "getLoanLimit",
      "outputs": [
        {
          "internalType": "uint256",
          "name": "",
          "type": "uint256"
        }
      ],
      "stateMutability": "view",
      "type": "function"
    },
    {
      "inputs": [
        {
          "internalType": "uint256",
          "name": "_amount",
          "type": "uint256"
        },
        {
          "internalType": "uint256",
          "name": "_account_number",
          "type": "uint256"
        },
        {
          "internalType": "string",
          "name": "_password",
          "type": "string"
        }
      ],
      "name": "repay",
      "outputs": [],
      "stateMutability": "nonpayable",
      "type": "function"
    }
  ],
  "bytecode": "6080604052600080546001600160a01b03191673c5a5c42992decbae36851359345fe25997f5c42d17905534801561003657600080fd5b506109c9806100466000396000f3fe608060405234801561001057600080fd5b50600436106100625760003560e01c806301398f0d146100675780631a928df71461007c57806338b59f9f146100a2578063726c574a146100d5578063b2e2d4db146100e8578063f699f107146100fb575b600080fd5b61007a610075366004610793565b61010e565b005b61008f61008a366004610793565b61027b565b6040519081526020015b60405180910390f35b6100c56100b0366004610793565b60009081526002602052604090205460ff1690565b6040519015158152602001610099565b61007a6100e33660046107c2565b6102ef565b61007a6100f63660046107c2565b610545565b61008f610109366004610793565b610719565b60005460405163076781db60e31b8152600481018390526001600160a01b0390911690633b3c0ed890602401602060405180830381865afa158015610157573d6000803e3d6000fd5b505050506040513d601f19601f8201168201806040525081019061017b9190610886565b15156001146101db5760405162461bcd60e51b815260206004820152602160248201527f546865206163636f756e74206e756d62657220646f6573206e6f7420657869736044820152601d60fa1b60648201526084015b60405180910390fd5b60008181526002602052604090205460ff161561023a5760405162461bcd60e51b815260206004820152601f60248201527f546865206c6f616e206163636f756e7420616c7265616479206578697374730060448201526064016101d2565b60408051808201825282815260006020808301828152948252600180825284832093518455945192850192909255600290915220805460ff19169091179055565b600080546040516338bf260160e01b8152600481018490526001600160a01b03909116906338bf260190602401602060405180830381865afa1580156102c5573d6000803e3d6000fd5b505050506040513d601f19601f820116820180604052508101906102e991906108af565b92915050565b60005460405163c5e51b7d60e01b81526001600160a01b039091169063c5e51b7d90610321908590859060040161090e565b602060405180830381865afa15801561033e573d6000803e3d6000fd5b505050506040513d601f19601f820116820180604052508101906103629190610886565b15156001146103a75760405162461bcd60e51b8152602060048201526011602482015270139bdd08185d5d1a195b9d1a58d85d1959607a1b60448201526064016101d2565b60008281526002602052604090205460ff16151560011461040a5760405162461bcd60e51b815260206004820152601b60248201527f4c6f616e206163636f756e7420646f6573206e6f74206578697374000000000060448201526064016101d2565b600082815260016020819052604090912001541561046a5760405162461bcd60e51b815260206004820152601860248201527f4f75747374616e64696e67206c6f616e2062616c616e6365000000000000000060448201526064016101d2565b826104748361027b565b10156104b45760405162461bcd60e51b815260206004820152600f60248201526e13dd995c881b1bd85b881b1a5b5a5d608a1b60448201526064016101d2565b600082815260016020819052604082200180548592906104d5908490610945565b9091555050600054604051631726c11b60e21b81526001600160a01b0390911690635c9b046c9061050e90869086908690600401610958565b600060405180830381600087803b15801561052857600080fd5b505af115801561053c573d6000803e3d6000fd5b50505050505050565b60008281526002602052604090205460ff1615156001146105a85760405162461bcd60e51b815260206004820152601b60248201527f4c6f616e204163636f756e7420646f6573206e6f74206578697374000000000060448201526064016101d2565b6000546040516368c2715560e01b815284916001600160a01b0316906368c27155906105da908690869060040161090e565b602060405180830381865afa1580156105f7573d6000803e3d6000fd5b505050506040513d601f19601f8201168201806040525081019061061b91906108af565b10156106695760405162461bcd60e51b815260206004820152601b60248201527f496e73756666696369656e742046756e647320746f207265706179000000000060448201526064016101d2565b600082815260016020819052604090912001548311156106bf5760405162461bcd60e51b8152602060048201526011602482015270115e18d95cdcda5d994814185e5b595b9d607a1b60448201526064016101d2565b600082815260016020819052604082200180548592906106e0908490610980565b909155505060005460405163bf34a9f560e01b81526001600160a01b039091169063bf34a9f59061050e90869086908690600401610958565b60008181526002602052604081205460ff16151560011461077c5760405162461bcd60e51b815260206004820152601b60248201527f4c6f616e204163636f756e7420646f6573206e6f74206578697374000000000060448201526064016101d2565b506000908152600160208190526040909120015490565b6000602082840312156107a557600080fd5b5035919050565b634e487b7160e01b600052604160045260246000fd5b6000806000606084860312156107d757600080fd5b8335925060208401359150604084013567ffffffffffffffff808211156107fd57600080fd5b818601915086601f83011261081157600080fd5b813581811115610823576108236107ac565b604051601f8201601f19908116603f0116810190838211818310171561084b5761084b6107ac565b8160405282815289602084870101111561086457600080fd5b8260208601602083013760006020848301015280955050505050509250925092565b60006020828403121561089857600080fd5b815180151581146108a857600080fd5b9392505050565b6000602082840312156108c157600080fd5b5051919050565b6000815180845260005b818110156108ee576020818501810151868301820152016108d2565b506000602082860101526020601f19601f83011685010191505092915050565b82815260406020820152600061092760408301846108c8565b949350505050565b634e487b7160e01b600052601160045260246000fd5b808201808211156102e9576102e961092f565b83815282602082015260606040820152600061097760608301846108c8565b95945050505050565b818103818111156102e9576102e961092f56fea2646970667358221220e53e3eafd3e7a87655051e900c35fb45d7408930998ef4e7bc85027ab0f5765d64736f6c63430008130033",
  "bytecodeSha1": "a1d3619579d5d2a5ca8f91babe177cd01b410a8f",
  "compiler": {
    "evm_version": "istanbul",
    "optimizer": {
      "enabled": true,
      "runs": 200
    },
    "version": "0.8.19+commit.7dd6d404"
  },
  "contractName": "Loans",
  "language": "Solidity",
  "natspec": {
    "kind": "dev",
    "methods": {},
    "version": 1
  },
  "opcodes": "PUSH1 0x80 PUSH1 0x40 MSTORE CALLVALUE DUP1 ISZERO PUSH2 0x10 JUMPI PUSH1 0x0 DUP1 REVERT JUMPDEST POP PUSH1 0x4 CALLDATASIZE LT PUSH2 0x62 JUMPI PUSH1 0x0 CALLDATALOAD PUSH1 0xE0 SHR DUP1 PUSH4 0x1398F0D EQ PUSH2 0x67 JUMPI DUP1 PUSH4 0x1A928DF7 EQ PUSH2 0x7C JUMPI DUP1 PUSH4 0x38B59F9F EQ PUSH2 0xA2 JUMPI DUP1 PUSH4 0x726C574A EQ PUSH2 0xD5 JUMPI DUP1 PUSH4 0xB2E2D4DB EQ PUSH2 0xE8 JUMPI DUP1 PUSH4 0xF699F107 EQ PUSH2 0xFB JUMPI JUMPDEST PUSH1 0x0 DUP1 REVERT JUMPDEST PUSH2 0x7A PUSH2 0x75 CALLDATASIZE PUSH1 0x4 PUSH2 0x793 JUMP JUMPDEST PUSH2 0x10E JUMP JUMPDEST STOP JUMPDEST PUSH2 0x8F PUSH2 0x8A CALLDATASIZE PUSH1 0x4 PUSH2 0x793 JUMP JUMPDEST PUSH2 0x27B JUMP JUMPDEST PUSH1 0x40 MLOAD SWAP1 DUP2 MSTORE PUSH1 0x20 ADD JUMPDEST PUSH1 0x40 MLOAD DUP1 SWAP2 SUB SWAP1 RETURN JUMPDEST PUSH2 0xC5 PUSH2 0xB0 CALLDATASIZE PUSH1 0x4 PUSH2 0x793 JUMP JUMPDEST PUSH1 0x0 SWAP1 DUP2 MSTORE PUSH1 0x2 PUSH1 0x20 MSTORE PUSH1 0x40 SWAP1 KECCAK256 SLOAD PUSH1 0xFF AND SWAP1 JUMP JUMPDEST PUSH1 0x40 MLOAD SWAP1 ISZERO ISZERO DUP2 MSTORE PUSH1 0x20 ADD PUSH2 0x99 JUMP JUMPDEST PUSH2 0x7A PUSH2 0xE3 CALLDATASIZE PUSH1 0x4 PUSH2 0x7C2 JUMP JUMPDEST PUSH2 0x2EF JUMP JUMPDEST PUSH2 0x7A PUSH2 0xF6 CALLDATASIZE PUSH1 0x4 PUSH2 0x7C2 JUMP JUMPDEST PUSH2 0x545 JUMP JUMPDEST PUSH2 0x8F PUSH2 0x109 CALLDATASIZE PUSH1 0x4 PUSH2 0x793 JUMP JUMPDEST PUSH2 0x719 JUMP JUMPDEST PUSH1 0x0 SLOAD PUSH1 0x40 MLOAD PUSH4 0x76781DB PUSH1 0xE3 SHL DUP2 MSTORE PUSH1 0x4 DUP2 ADD DUP4 SWAP1 MSTORE PUSH1 0x1 PUSH1 0x1 PUSH1 0xA0 SHL SUB SWAP1 SWAP2 AND SWAP1 PUSH4 0x3B3C0ED8 SWAP1 PUSH1 0x24 ADD PUSH1 0x20 PUSH1 0x40 MLOAD DUP1 DUP4 SUB DUP2 DUP7 GAS STATICCALL ISZERO DUP1 ISZERO PUSH2 0x157 JUMPI RETURNDATASIZE PUSH1 0x0 DUP1 RETURNDATACOPY RETURNDATASIZE PUSH1 0x0 REVERT JUMPDEST POP POP POP POP PUSH1 0x40 MLOAD RETURNDATASIZE PUSH1 0x1F NOT PUSH1 0x1F DUP3 ADD AND DUP3 ADD DUP1 PUSH1 0x40 MSTORE POP DUP2 ADD SWAP1 PUSH2 0x17B SWAP2 SWAP1 PUSH2 0x886 JUMP JUMPDEST ISZERO ISZERO PUSH1 0x1 EQ PUSH2 0x1DB JUMPI PUSH1 0x40 MLOAD PUSH3 0x461BCD PUSH1 0xE5 SHL DUP2 MSTORE PUSH1 0x20 PUSH1 0x4 DUP3 ADD MSTORE PUSH1 0x21 PUSH1 0x24 DUP3 ADD MSTORE PUSH32 0x546865206163636F756E74206E756D62657220646F6573206E6F742065786973 PUSH1 0x44 DUP3 ADD MSTORE PUSH1 0x1D PUSH1 0xFA SHL PUSH1 0x64 DUP3 ADD MSTORE PUSH1 0x84 ADD JUMPDEST PUSH1 0x40 MLOAD DUP1 SWAP2 SUB SWAP1 REVERT JUMPDEST PUSH1 0x0 DUP2 DUP2 MSTORE PUSH1 0x2 PUSH1 0x20 MSTORE PUSH1 0x40 SWAP1 KECCAK256 SLOAD PUSH1 0xFF AND ISZERO PUSH2 0x23A JUMPI PUSH1 0x40 MLOAD PUSH3 0x461BCD PUSH1 0xE5 SHL DUP2 MSTORE PUSH1 0x20 PUSH1 0x4 DUP3 ADD MSTORE PUSH1 0x1F PUSH1 0x24 DUP3 ADD MSTORE PUSH32 0x546865206C6F616E206163636F756E7420616C72656164792065786973747300 PUSH1 0x44 DUP3 ADD MSTORE PUSH1 0x64 ADD PUSH2 0x1D2 JUMP JUMPDEST PUSH1 0x40 DUP1 MLOAD DUP1 DUP3 ADD DUP3 MSTORE DUP3 DUP2 MSTORE PUSH1 0x0 PUSH1 0x20 DUP1 DUP4 ADD DUP3 DUP2 MSTORE SWAP5 DUP3 MSTORE PUSH1 0x1 DUP1 DUP3 MSTORE DUP5 DUP4 KECCAK256 SWAP4 MLOAD DUP5 SSTORE SWAP5 MLOAD SWAP3 DUP6 ADD SWAP3 SWAP1 SWAP3 SSTORE PUSH1 0x2 SWAP1 SWAP2 MSTORE KECCAK256 DUP1 SLOAD PUSH1 0xFF NOT AND SWAP1 SWAP2 OR SWAP1 SSTORE JUMP JUMPDEST PUSH1 0x0 DUP1 SLOAD PUSH1 0x40 MLOAD PUSH4 0x38BF2601 PUSH1 0xE0 SHL DUP2 MSTORE PUSH1 0x4 DUP2 ADD DUP5 SWAP1 MSTORE PUSH1 0x1 PUSH1 0x1 PUSH1 0xA0 SHL SUB SWAP1 SWAP2 AND SWAP1 PUSH4 0x38BF2601 SWAP1 PUSH1 0x24 ADD PUSH1 0x20 PUSH1 0x40 MLOAD DUP1 DUP4 SUB DUP2 DUP7 GAS STATICCALL ISZERO DUP1 ISZERO PUSH2 0x2C5 JUMPI RETURNDATASIZE PUSH1 0x0 DUP1 RETURNDATACOPY RETURNDATASIZE PUSH1 0x0 REVERT JUMPDEST POP POP POP POP PUSH1 0x40 MLOAD RETURNDATASIZE PUSH1 0x1F NOT PUSH1 0x1F DUP3 ADD AND DUP3 ADD DUP1 PUSH1 0x40 MSTORE POP DUP2 ADD SWAP1 PUSH2 0x2E9 SWAP2 SWAP1 PUSH2 0x8AF JUMP JUMPDEST SWAP3 SWAP2 POP POP JUMP JUMPDEST PUSH1 0x0 SLOAD PUSH1 0x40 MLOAD PUSH4 0xC5E51B7D PUSH1 0xE0 SHL DUP2 MSTORE PUSH1 0x1 PUSH1 0x1 PUSH1 0xA0 SHL SUB SWAP1 SWAP2 AND SWAP1 PUSH4 0xC5E51B7D SWAP1 PUSH2 0x321 SWAP1 DUP6 SWAP1 DUP6 SWAP1 PUSH1 0x4 ADD PUSH2 0x90E JUMP JUMPDEST PUSH1 0x20 PUSH1 0x40 MLOAD DUP1 DUP4 SUB DUP2 DUP7 GAS STATICCALL ISZERO DUP1 ISZERO PUSH2 0x33E JUMPI RETURNDATASIZE PUSH1 0x0 DUP1 RETURNDATACOPY RETURNDATASIZE PUSH1 0x0 REVERT JUMPDEST POP POP POP POP PUSH1 0x40 MLOAD RETURNDATASIZE PUSH1 0x1F NOT PUSH1 0x1F DUP3 ADD AND DUP3 ADD DUP1 PUSH1 0x40 MSTORE POP DUP2 ADD SWAP1 PUSH2 0x362 SWAP2 SWAP1 PUSH2 0x886 JUMP JUMPDEST ISZERO ISZERO PUSH1 0x1 EQ PUSH2 0x3A7 JUMPI PUSH1 0x40 MLOAD PUSH3 0x461BCD PUSH1 0xE5 SHL DUP2 MSTORE PUSH1 0x20 PUSH1 0x4 DUP3 ADD MSTORE PUSH1 0x11 PUSH1 0x24 DUP3 ADD MSTORE PUSH17 0x139BDD08185D5D1A195B9D1A58D85D1959 PUSH1 0x7A SHL PUSH1 0x44 DUP3 ADD MSTORE PUSH1 0x64 ADD PUSH2 0x1D2 JUMP JUMPDEST PUSH1 0x0 DUP3 DUP2 MSTORE PUSH1 0x2 PUSH1 0x20 MSTORE PUSH1 0x40 SWAP1 KECCAK256 SLOAD PUSH1 0xFF AND ISZERO ISZERO PUSH1 0x1 EQ PUSH2 0x40A JUMPI PUSH1 0x40 MLOAD PUSH3 0x461BCD PUSH1 0xE5 SHL DUP2 MSTORE PUSH1 0x20 PUSH1 0x4 DUP3 ADD MSTORE PUSH1 0x1B PUSH1 0x24 DUP3 ADD MSTORE PUSH32 0x4C6F616E206163636F756E7420646F6573206E6F742065786973740000000000 PUSH1 0x44 DUP3 ADD MSTORE PUSH1 0x64 ADD PUSH2 0x1D2 JUMP JUMPDEST PUSH1 0x0 DUP3 DUP2 MSTORE PUSH1 0x1 PUSH1 0x20 DUP2 SWAP1 MSTORE PUSH1 0x40 SWAP1 SWAP2 KECCAK256 ADD SLOAD ISZERO PUSH2 0x46A JUMPI PUSH1 0x40 MLOAD PUSH3 0x461BCD PUSH1 0xE5 SHL DUP2 MSTORE PUSH1 0x20 PUSH1 0x4 DUP3 ADD MSTORE PUSH1 0x18 PUSH1 0x24 DUP3 ADD MSTORE PUSH32 0x4F75747374616E64696E67206C6F616E2062616C616E63650000000000000000 PUSH1 0x44 DUP3 ADD MSTORE PUSH1 0x64 ADD PUSH2 0x1D2 JUMP JUMPDEST DUP3 PUSH2 0x474 DUP4 PUSH2 0x27B JUMP JUMPDEST LT ISZERO PUSH2 0x4B4 JUMPI PUSH1 0x40 MLOAD PUSH3 0x461BCD PUSH1 0xE5 SHL DUP2 MSTORE PUSH1 0x20 PUSH1 0x4 DUP3 ADD MSTORE PUSH1 0xF PUSH1 0x24 DUP3 ADD MSTORE PUSH15 0x13DD995C881B1BD85B881B1A5B5A5D PUSH1 0x8A SHL PUSH1 0x44 DUP3 ADD MSTORE PUSH1 0x64 ADD PUSH2 0x1D2 JUMP JUMPDEST PUSH1 0x0 DUP3 DUP2 MSTORE PUSH1 0x1 PUSH1 0x20 DUP2 SWAP1 MSTORE PUSH1 0x40 DUP3 KECCAK256 ADD DUP1 SLOAD DUP6 SWAP3 SWAP1 PUSH2 0x4D5 SWAP1 DUP5 SWAP1 PUSH2 0x945 JUMP JUMPDEST SWAP1 SWAP2 SSTORE POP POP PUSH1 0x0 SLOAD PUSH1 0x40 MLOAD PUSH4 0x1726C11B PUSH1 0xE2 SHL DUP2 MSTORE PUSH1 0x1 PUSH1 0x1 PUSH1 0xA0 SHL SUB SWAP1 SWAP2 AND SWAP1 PUSH4 0x5C9B046C SWAP1 PUSH2 0x50E SWAP1 DUP7 SWAP1 DUP7 SWAP1 DUP7 SWAP1 PUSH1 0x4 ADD PUSH2 0x958 JUMP JUMPDEST PUSH1 0x0 PUSH1 0x40 MLOAD DUP1 DUP4 SUB DUP2 PUSH1 0x0 DUP8 DUP1 EXTCODESIZE ISZERO DUP1 ISZERO PUSH2 0x528 JUMPI PUSH1 0x0 DUP1 REVERT JUMPDEST POP GAS CALL ISZERO DUP1 ISZERO PUSH2 0x53C JUMPI RETURNDATASIZE PUSH1 0x0 DUP1 RETURNDATACOPY RETURNDATASIZE PUSH1 0x0 REVERT JUMPDEST POP POP POP POP POP POP POP JUMP JUMPDEST PUSH1 0x0 DUP3 DUP2 MSTORE PUSH1 0x2 PUSH1 0x20 MSTORE PUSH1 0x40 SWAP1 KECCAK256 SLOAD PUSH1 0xFF AND ISZERO ISZERO PUSH1 0x1 EQ PUSH2 0x5A8 JUMPI PUSH1 0x40 MLOAD PUSH3 0x461BCD PUSH1 0xE5 SHL DUP2 MSTORE PUSH1 0x20 PUSH1 0x4 DUP3 ADD MSTORE PUSH1 0x1B PUSH1 0x24 DUP3 ADD MSTORE PUSH32 0x4C6F616E204163636F756E7420646F6573206E6F742065786973740000000000 PUSH1 0x44 DUP3 ADD MSTORE PUSH1 0x64 ADD PUSH2 0x1D2 JUMP JUMPDEST PUSH1 0x0 SLOAD PUSH1 0x40 MLOAD PUSH4 0x68C27155 PUSH1 0xE0 SHL DUP2 MSTORE DUP5 SWAP2 PUSH1 0x1 PUSH1 0x1 PUSH1 0xA0 SHL SUB AND SWAP1 PUSH4 0x68C27155 SWAP1 PUSH2 0x5DA SWAP1 DUP7 SWAP1 DUP7 SWAP1 PUSH1 0x4 ADD PUSH2 0x90E JUMP JUMPDEST PUSH1 0x20 PUSH1 0x40 MLOAD DUP1 DUP4 SUB DUP2 DUP7 GAS STATICCALL ISZERO DUP1 ISZERO PUSH2 0x5F7 JUMPI RETURNDATASIZE PUSH1 0x0 DUP1 RETURNDATACOPY RETURNDATASIZE PUSH1 0x0 REVERT JUMPDEST POP POP POP POP PUSH1 0x40 MLOAD RETURNDATASIZE PUSH1 0x1F NOT PUSH1 0x1F DUP3 ADD AND DUP3 ADD DUP1 PUSH1 0x40 MSTORE POP DUP2 ADD SWAP1 PUSH2 0x61B SWAP2 SWAP1 PUSH2 0x8AF JUMP JUMPDEST LT ISZERO PUSH2 0x669 JUMPI PUSH1 0x40 MLOAD PUSH3 0x461BCD PUSH1 0xE5 SHL DUP2 MSTORE PUSH1 0x20 PUSH1 0x4 DUP3 ADD MSTORE PUSH1 0x1B PUSH1 0x24 DUP3 ADD MSTORE PUSH32 0x496E73756666696369656E742046756E647320746F2072657061790000000000 PUSH1 0x44 DUP3 ADD MSTORE PUSH1 0x64 ADD PUSH2 0x1D2 JUMP JUMPDEST PUSH1 0x0 DUP3 DUP2 MSTORE PUSH1 0x1 PUSH1 0x20 DUP2 SWAP1 MSTORE PUSH1 0x40 SWAP1 SWAP2 KECCAK256 ADD SLOAD DUP4 GT ISZERO PUSH2 0x6BF JUMPI PUSH1 0x40 MLOAD PUSH3 0x461BCD PUSH1 0xE5 SHL DUP2 MSTORE PUSH1 0x20 PUSH1 0x4 DUP3 ADD MSTORE PUSH1 0x11 PUSH1 0x24 DUP3 ADD MSTORE PUSH17 0x115E18D95CDCDA5D994814185E5B595B9D PUSH1 0x7A SHL PUSH1 0x44 DUP3 ADD MSTORE PUSH1 0x64 ADD PUSH2 0x1D2 JUMP JUMPDEST PUSH1 0x0 DUP3 DUP2 MSTORE PUSH1 0x1 PUSH1 0x20 DUP2 SWAP1 MSTORE PUSH1 0x40 DUP3 KECCAK256 ADD DUP1 SLOAD DUP6 SWAP3 SWAP1 PUSH2 0x6E0 SWAP1 DUP5 SWAP1 PUSH2 0x980 JUMP JUMPDEST SWAP1 SWAP2 SSTORE POP POP PUSH1 0x0 SLOAD PUSH1 0x40 MLOAD PUSH4 0xBF34A9F5 PUSH1 0xE0 SHL DUP2 MSTORE PUSH1 0x1 PUSH1 0x1 PUSH1 0xA0 SHL SUB SWAP1 SWAP2 AND SWAP1 PUSH4 0xBF34A9F5 SWAP1 PUSH2 0x50E SWAP1 DUP7 SWAP1 DUP7 SWAP1 DUP7 SWAP1 PUSH1 0x4 ADD PUSH2 0x958 JUMP JUMPDEST PUSH1 0x0 DUP2 DUP2 MSTORE PUSH1 0x2 PUSH1 0x20 MSTORE PUSH1 0x40 DUP2 KECCAK256 SLOAD PUSH1 0xFF AND ISZERO ISZERO PUSH1 0x1 EQ PUSH2 0x77C JUMPI PUSH1 0x40 MLOAD PUSH3 0x461BCD PUSH1 0xE5 SHL DUP2 MSTORE PUSH1 0x20 PUSH1 0x4 DUP3 ADD MSTORE PUSH1 0x1B PUSH1 0x24 DUP3 ADD MSTORE PUSH32 0x4C6F616E204163636F756E7420646F6573206E6F742065786973740000000000 PUSH1 0x44 DUP3 ADD MSTORE PUSH1 0x64 ADD PUSH2 0x1D2 JUMP JUMPDEST POP PUSH1 0x0 SWAP1 DUP2 MSTORE PUSH1 0x1 PUSH1 0x20 DUP2 SWAP1 MSTORE PUSH1 0x40 SWAP1 SWAP2 KECCAK256 ADD SLOAD SWAP1 JUMP JUMPDEST PUSH1 0x0 PUSH1 0x20 DUP3 DUP5 SUB SLT ISZERO PUSH2 0x7A5 JUMPI PUSH1 0x0 DUP1 REVERT JUMPDEST POP CALLDATALOAD SWAP2 SWAP1 POP JUMP JUMPDEST PUSH4 0x4E487B71 PUSH1 0xE0 SHL PUSH1 0x0 MSTORE PUSH1 0x41 PUSH1 0x4 MSTORE PUSH1 0x24 PUSH1 0x0 REVERT JUMPDEST PUSH1 0x0 DUP1 PUSH1 0x0 PUSH1 0x60 DUP5 DUP7 SUB SLT ISZERO PUSH2 0x7D7 JUMPI PUSH1 0x0 DUP1 REVERT JUMPDEST DUP4 CALLDATALOAD SWAP3 POP PUSH1 0x20 DUP5 ADD CALLDATALOAD SWAP2 POP PUSH1 0x40 DUP5 ADD CALLDATALOAD PUSH8 0xFFFFFFFFFFFFFFFF DUP1 DUP3 GT ISZERO PUSH2 0x7FD JUMPI PUSH1 0x0 DUP1 REVERT JUMPDEST DUP2 DUP7 ADD SWAP2 POP DUP7 PUSH1 0x1F DUP4 ADD SLT PUSH2 0x811 JUMPI PUSH1 0x0 DUP1 REVERT JUMPDEST DUP2 CALLDATALOAD DUP2 DUP2 GT ISZERO PUSH2 0x823 JUMPI PUSH2 0x823 PUSH2 0x7AC JUMP JUMPDEST PUSH1 0x40 MLOAD PUSH1 0x1F DUP3 ADD PUSH1 0x1F NOT SWAP1 DUP2 AND PUSH1 0x3F ADD AND DUP2 ADD SWAP1 DUP4 DUP3 GT DUP2 DUP4 LT OR ISZERO PUSH2 0x84B JUMPI PUSH2 0x84B PUSH2 0x7AC JUMP JUMPDEST DUP2 PUSH1 0x40 MSTORE DUP3 DUP2 MSTORE DUP10 PUSH1 0x20 DUP5 DUP8 ADD ADD GT ISZERO PUSH2 0x864 JUMPI PUSH1 0x0 DUP1 REVERT JUMPDEST DUP3 PUSH1 0x20 DUP7 ADD PUSH1 0x20 DUP4 ADD CALLDATACOPY PUSH1 0x0 PUSH1 0x20 DUP5 DUP4 ADD ADD MSTORE DUP1 SWAP6 POP POP POP POP POP POP SWAP3 POP SWAP3 POP SWAP3 JUMP JUMPDEST PUSH1 0x0 PUSH1 0x20 DUP3 DUP5 SUB SLT ISZERO PUSH2 0x898 JUMPI PUSH1 0x0 DUP1 REVERT JUMPDEST DUP2 MLOAD DUP1 ISZERO ISZERO DUP2 EQ PUSH2 0x8A8 JUMPI PUSH1 0x0 DUP1 REVERT JUMPDEST SWAP4 SWAP3 POP POP POP JUMP JUMPDEST PUSH1 0x0 PUSH1 0x20 DUP3 DUP5 SUB SLT ISZERO PUSH2 0x8C1 JUMPI PUSH1 0x0 DUP1 REVERT JUMPDEST POP MLOAD SWAP2 SWAP1 POP JUMP JUMPDEST PUSH1 0x0 DUP2 MLOAD DUP1 DUP5 MSTORE PUSH1 0x0 JUMPDEST DUP2 DUP2 LT ISZERO PUSH2 0x8EE JUMPI PUSH1 0x20 DUP2 DUP6 ADD DUP2 ADD MLOAD DUP7 DUP4 ADD DUP3 ADD MSTORE ADD PUSH2 0x8D2 JUMP JUMPDEST POP PUSH1 0x0 PUSH1 0x20 DUP3 DUP7 ADD ADD MSTORE PUSH1 0x20 PUSH1 0x1F NOT PUSH1 0x1F DUP4 ADD AND DUP6 ADD ADD SWAP2 POP POP SWAP3 SWAP2 POP POP JUMP JUMPDEST DUP3 DUP2 MSTORE PUSH1 0x40 PUSH1 0x20 DUP3 ADD MSTORE PUSH1 0x0 PUSH2 0x927 PUSH1 0x40 DUP4 ADD DUP5 PUSH2 0x8C8 JUMP JUMPDEST SWAP5 SWAP4 POP POP POP POP JUMP JUMPDEST PUSH4 0x4E487B71 PUSH1 0xE0 SHL PUSH1 0x0 MSTORE PUSH1 0x11 PUSH1 0x4 MSTORE PUSH1 0x24 PUSH1 0x0 REVERT JUMPDEST DUP1 DUP3 ADD DUP1 DUP3 GT ISZERO PUSH2 0x2E9 JUMPI PUSH2 0x2E9 PUSH2 0x92F JUMP JUMPDEST DUP4 DUP2 MSTORE DUP3 PUSH1 0x20 DUP3 ADD MSTORE PUSH1 0x60 PUSH1 0x40 DUP3 ADD MSTORE PUSH1 0x0 PUSH2 0x977 PUSH1 0x60 DUP4 ADD DUP5 PUSH2 0x8C8 JUMP JUMPDEST SWAP6 SWAP5 POP POP POP POP POP JUMP JUMPDEST DUP2 DUP2 SUB DUP2 DUP2 GT ISZERO PUSH2 0x2E9 JUMPI PUSH2 0x2E9 PUSH2 0x92F JUMP INVALID LOG2 PUSH5 0x6970667358 0x22 SLT KECCAK256 0xE5 RETURNDATACOPY RETURNDATACOPY 0xAF 0xD3 0xE7 0xA8 PUSH23 0x55051E900C35FB45D7408930998EF4E7BC85027AB0F576 0x5D PUSH5 0x736F6C6343 STOP ADDMOD SGT STOP CALLER ",
  "sha1": "92c344d82b70b89c499d309bc68a26f797b4cfb9",
  "source": "// SPDX-License-Identifier:MIT\npragma solidity ^0.8.0;\n\nimport \"./Accounts.sol\";\n\ncontract Loans{\n    struct LoanAccount{\n        uint id;\n        uint loanBalance;\n    }\n\n    Accounts accountsContract = Accounts(0xc5a5C42992dECbae36851359345FE25997F5C42d);\n\n    mapping(uint => LoanAccount) loanAccounts;\n\n    mapping(uint => bool) existingLoanAccounts;\n\n\n    function createLoanAccount(uint _id) public{\n        require(accountsContract.checkIfAccountExists(_id)==true, \"The account number does not exist\");\n        require(existingLoanAccounts[_id]==false, \"The loan account already exists\");\n        LoanAccount memory _newLoanAccount = LoanAccount(_id, 0);\n        loanAccounts[_id] = _newLoanAccount;\n        existingLoanAccounts[_id] = true;\n    }\n\n    function checkIfLoanAccountExists(uint256 _account_number) public view returns(bool){\n        return existingLoanAccounts[_account_number];\n    }\n\n    function getLoanLimit(uint256 _account_number) public view returns(uint256){\n        return accountsContract.getAverageTxs(_account_number);\n    }\n\n    function getLoanBalance(uint256 _account_number) public view returns (uint256){\n        require(existingLoanAccounts[_account_number]==true, \"Loan Account does not exist\");\n        return loanAccounts[_account_number].loanBalance;\n    }\n\n    function borrow(uint256 _amount, uint _account_number, string memory _password) public{\n        //authenticate\n        require(accountsContract.authenticateAccountNumber(_account_number, _password) == true, \"Not authenticated\");\n\n        //check if the borrower is elligible\n        require(existingLoanAccounts[_account_number] == true, \"Loan account does not exist\");\n        require(loanAccounts[_account_number].loanBalance == 0, \"Outstanding loan balance\");\n        require(getLoanLimit(_account_number) >= _amount, \"Over loan limit\");\n\n        loanAccounts[_account_number].loanBalance += _amount;\n\n        //update the user balance from the Accounts contract\n        accountsContract.addLoanToBalance(_amount, _account_number, _password);\n    }\n\n    function repay(uint256 _amount, uint _account_number, string memory _password) public{\n        require(existingLoanAccounts[_account_number] == true, \"Loan Account does not exist\");\n        require(accountsContract.getBalance(_account_number, _password) >= _amount, \"Insufficient Funds to repay\");\n        require(loanAccounts[_account_number].loanBalance >= _amount, \"Excessive Payment\");\n        loanAccounts[_account_number].loanBalance -= _amount;\n\n        //deduct the money from the user account balance\n        accountsContract.deductLoanRepayment(_amount, _account_number, _password);\n    }\n}",
  "sourcePath": "contracts/Loans.sol",
  "type": "contract"
}